{
  "contractName": "BNDESPublicTenderNotarizer",
  "abi": [
    {
      "inputs": [
        {
          "internalType": "address",
          "name": "registryAddr",
          "type": "address"
        }
      ],
      "payable": false,
      "stateMutability": "nonpayable",
      "type": "constructor"
    },
    {
      "anonymous": false,
      "inputs": [
        {
          "indexed": false,
          "internalType": "uint256",
          "name": "",
          "type": "uint256"
        },
        {
          "indexed": false,
          "internalType": "bytes32",
          "name": "",
          "type": "bytes32"
        },
        {
          "indexed": false,
          "internalType": "uint256",
          "name": "",
          "type": "uint256"
        },
        {
          "indexed": false,
          "internalType": "uint256",
          "name": "",
          "type": "uint256"
        }
      ],
      "name": "PublicTenderNotarized",
      "type": "event"
    },
    {
      "constant": true,
      "inputs": [
        {
          "internalType": "uint256",
          "name": "",
          "type": "uint256"
        }
      ],
      "name": "notarizedPublicTender",
      "outputs": [
        {
          "internalType": "bytes32",
          "name": "documentListHash",
          "type": "bytes32"
        },
        {
          "internalType": "uint256",
          "name": "lastNotarizationDate",
          "type": "uint256"
        },
        {
          "internalType": "uint256",
          "name": "version",
          "type": "uint256"
        }
      ],
      "payable": false,
      "stateMutability": "view",
      "type": "function"
    },
    {
      "constant": true,
      "inputs": [],
      "name": "registry",
      "outputs": [
        {
          "internalType": "contract RBBRegistry",
          "name": "",
          "type": "address"
        }
      ],
      "payable": false,
      "stateMutability": "view",
      "type": "function"
    },
    {
      "constant": false,
      "inputs": [
        {
          "internalType": "uint256",
          "name": "publicTenderId",
          "type": "uint256"
        },
        {
          "internalType": "bytes32",
          "name": "documentListHash",
          "type": "bytes32"
        }
      ],
      "name": "notarizePublicTender",
      "outputs": [],
      "payable": false,
      "stateMutability": "nonpayable",
      "type": "function"
    }
  ],
  "bytecode": "0x608060405234801561001057600080fd5b506040516105d73803806105d78339818101604052602081101561003357600080fd5b8101908080519060200190929190505050806000806101000a81548173ffffffffffffffffffffffffffffffffffffffff021916908373ffffffffffffffffffffffffffffffffffffffff1602179055506000809054906101000a900473ffffffffffffffffffffffffffffffffffffffff1673ffffffffffffffffffffffffffffffffffffffff166365f68c89336040518263ffffffff1660e01b8152600401808273ffffffffffffffffffffffffffffffffffffffff1673ffffffffffffffffffffffffffffffffffffffff16815260200191505060206040518083038186803b15801561012257600080fd5b505afa158015610136573d6000803e3d6000fd5b505050506040513d602081101561014c57600080fd5b810190808051906020019092919050505060018190555050610464806101736000396000f3fe608060405234801561001057600080fd5b50600436106100415760003560e01c80637b10399914610046578063b40e124d14610090578063b8f76620146100e0575b600080fd5b61004e610118565b604051808273ffffffffffffffffffffffffffffffffffffffff1673ffffffffffffffffffffffffffffffffffffffff16815260200191505060405180910390f35b6100bc600480360360208110156100a657600080fd5b810190808035906020019092919050505061013d565b60405180848152602001838152602001828152602001935050505060405180910390f35b610116600480360360408110156100f657600080fd5b810190808035906020019092919080359060200190929190505050610167565b005b6000809054906101000a900473ffffffffffffffffffffffffffffffffffffffff1681565b60026020528060005260406000206000915090508060000154908060010154908060020154905083565b6001546000809054906101000a900473ffffffffffffffffffffffffffffffffffffffff1673ffffffffffffffffffffffffffffffffffffffff166365f68c89336040518263ffffffff1660e01b8152600401808273ffffffffffffffffffffffffffffffffffffffff1673ffffffffffffffffffffffffffffffffffffffff16815260200191505060206040518083038186803b15801561020857600080fd5b505afa15801561021c573d6000803e3d6000fd5b505050506040513d602081101561023257600080fd5b810190808051906020019092919050505014610299576040517f08c379a000000000000000000000000000000000000000000000000000000000815260040180806020018281038252602f815260200180610401602f913960400191505060405180910390fd5b6000801b6002600084815260200190815260200160002060000154141561030f57604051806060016040528082815260200142815260200160018152506002600084815260200190815260200160002060008201518160000155602082015181600101556040820151816002015590505061036b565b806002600084815260200190815260200160002060000181905550426002600084815260200190815260200160002060010181905550600160026000848152602001908152602001600020600201600082825401925050819055505b7ffe584818d6a6d08a1213fddf9b1733266dd12fa8b7740defed18b0a5584ceffa826002600085815260200190815260200160002060000154600260008681526020019081526020016000206001015460026000878152602001908152602001600020600201546040518085815260200184815260200183815260200182815260200194505050505060405180910390a1505056fe53c3b3206f2070726f7072696574c3a172696f20706f646520657865637574617220657373612066756ec3a7c3a36fa265627a7a72315820e0196fdc641da5c0489eb94ff9bdacfe09d8aa58eddb10aeed45a9184de8702364736f6c63430005100032",
  "source": "//SPDX-License-Identifier: MIT\npragma solidity >= 0.5.0 < 0.7.0;\n\nimport \"./RBBRegistry.sol\";\n\ncontract BNDESPublicTenderNotarizer \n{\n    RBBRegistry public registry;\n    uint ownerId;\n\n    struct NotarizedPublicTender\n    {\n        bytes32 documentListHash;\n        uint    lastNotarizationDate;\n        uint    version;\n    }\n\n    // PublicTenderId => NotarizedPublicTender\n    mapping (uint => NotarizedPublicTender) public notarizedPublicTender;\n\n    // Id of the procurement, hash of the document list, \n    // notarization date (now) and version \n    event PublicTenderNotarized(uint, bytes32, uint, uint);\n\n    modifier onlyOwner \n    {\n        require(registry.getId(msg.sender) == ownerId, \"Só o proprietário pode executar essa função\");\n        _;\n    }\n\n    constructor (address registryAddr) public\n    {\n        registry = RBBRegistry(registryAddr);\n        ownerId = registry.getId(msg.sender);\n\n    }\n\n    function notarizePublicTender (uint publicTenderId, bytes32 documentListHash) \n        public onlyOwner\n    {   \n        // If there is no value set to this procurementId...\n        if (notarizedPublicTender[publicTenderId].documentListHash == 0)\n        {\n            notarizedPublicTender[publicTenderId] = \n                NotarizedPublicTender(documentListHash, now, 1);\n        }\n        else\n        {\n            notarizedPublicTender[publicTenderId].documentListHash = documentListHash;\n            notarizedPublicTender[publicTenderId].lastNotarizationDate = now;\n            notarizedPublicTender[publicTenderId].version += 1;\n        }\n\n        emit PublicTenderNotarized(publicTenderId, \n            notarizedPublicTender[publicTenderId].documentListHash, \n            notarizedPublicTender[publicTenderId].lastNotarizationDate, \n            notarizedPublicTender[publicTenderId].version);\n    }\n}",
  "sourcePath": "/Users/glads/src/bndes/rbb-notarizer/back-blockchain/contracts/BNDESPublicTenderNotarizer.sol",
  "compiler": {
    "name": "solc",
    "version": "0.5.16+commit.9c3226ce.Emscripten.clang"
  },
  "schemaVersion": "3.2.5",
  "updatedAt": "2020-09-21T20:50:45.569Z",
  "networkType": "ethereum",
  "devdoc": {
    "methods": {}
  },
  "userdoc": {
    "methods": {}
  }
}