{
  "contractName": "Notarizer",
  "abi": [
    {
      "inputs": [
        {
          "internalType": "address",
          "name": "rbbRegistryAddr",
          "type": "address"
        }
      ],
      "payable": false,
      "stateMutability": "nonpayable",
      "type": "constructor"
    },
    {
      "anonymous": false,
      "inputs": [
        {
          "indexed": false,
          "internalType": "bytes32",
          "name": "",
          "type": "bytes32"
        },
        {
          "indexed": false,
          "internalType": "uint256",
          "name": "",
          "type": "uint256"
        },
        {
          "indexed": false,
          "internalType": "uint256",
          "name": "",
          "type": "uint256"
        },
        {
          "indexed": false,
          "internalType": "uint256",
          "name": "",
          "type": "uint256"
        }
      ],
      "name": "DocumentNotarized",
      "type": "event"
    },
    {
      "anonymous": false,
      "inputs": [
        {
          "indexed": false,
          "internalType": "bytes32",
          "name": "",
          "type": "bytes32"
        },
        {
          "indexed": false,
          "internalType": "uint256",
          "name": "",
          "type": "uint256"
        },
        {
          "indexed": false,
          "internalType": "uint256",
          "name": "",
          "type": "uint256"
        }
      ],
      "name": "NotarizationRevoked",
      "type": "event"
    },
    {
      "constant": true,
      "inputs": [
        {
          "internalType": "bytes32",
          "name": "",
          "type": "bytes32"
        },
        {
          "internalType": "uint256",
          "name": "",
          "type": "uint256"
        }
      ],
      "name": "notarizationInfo",
      "outputs": [
        {
          "internalType": "uint256",
          "name": "notarizationDate",
          "type": "uint256"
        },
        {
          "internalType": "uint256",
          "name": "expiratioDate",
          "type": "uint256"
        }
      ],
      "payable": false,
      "stateMutability": "view",
      "type": "function"
    },
    {
      "constant": true,
      "inputs": [],
      "name": "rbbRegistry",
      "outputs": [
        {
          "internalType": "contract RBBRegistry",
          "name": "",
          "type": "address"
        }
      ],
      "payable": false,
      "stateMutability": "view",
      "type": "function"
    },
    {
      "constant": false,
      "inputs": [
        {
          "internalType": "bytes32",
          "name": "hash",
          "type": "bytes32"
        },
        {
          "internalType": "uint256",
          "name": "validDays",
          "type": "uint256"
        }
      ],
      "name": "notarizeDocument",
      "outputs": [],
      "payable": false,
      "stateMutability": "nonpayable",
      "type": "function"
    },
    {
      "constant": false,
      "inputs": [
        {
          "internalType": "bytes32",
          "name": "hash",
          "type": "bytes32"
        }
      ],
      "name": "revoke",
      "outputs": [],
      "payable": false,
      "stateMutability": "nonpayable",
      "type": "function"
    }
  ],
  "bytecode": "0x6080604052600060015534801561001557600080fd5b5060405161058f38038061058f8339818101604052602081101561003857600080fd5b8101908080519060200190929190505050806000806101000a81548173ffffffffffffffffffffffffffffffffffffffff021916908373ffffffffffffffffffffffffffffffffffffffff160217905550506104f6806100996000396000f3fe608060405234801561001057600080fd5b506004361061004c5760003560e01c806334e860751461005157806373dd9c97146100a45780638a53fb5c146100dc578063b75c7dc614610126575b600080fd5b6100876004803603604081101561006757600080fd5b810190808035906020019092919080359060200190929190505050610154565b604051808381526020018281526020019250505060405180910390f35b6100da600480360360408110156100ba57600080fd5b810190808035906020019092919080359060200190929190505050610185565b005b6100e4610320565b604051808273ffffffffffffffffffffffffffffffffffffffff1673ffffffffffffffffffffffffffffffffffffffff16815260200191505060405180910390f35b6101526004803603602081101561013c57600080fd5b8101908080359060200190929190505050610345565b005b6002602052816000526040600020602052806000526040600020600091509150508060000154908060010154905082565b6000811161019257600080fd5b60006201518082024201905060008060009054906101000a900473ffffffffffffffffffffffffffffffffffffffff1673ffffffffffffffffffffffffffffffffffffffff166365f68c89336040518263ffffffff1660e01b8152600401808273ffffffffffffffffffffffffffffffffffffffff1673ffffffffffffffffffffffffffffffffffffffff16815260200191505060206040518083038186803b15801561023e57600080fd5b505afa158015610252573d6000803e3d6000fd5b505050506040513d602081101561026857600080fd5b8101908080519060200190929190505050905060405180604001604052804281526020018381525060026000868152602001908152602001600020600083815260200190815260200160002060008201518160000155602082015181600101559050507f78336e7170b13ae30fcc2eaa55cb163f2e46e5023b5fb4ac1e650f917b4481c9848242856040518085815260200184815260200183815260200182815260200194505050505060405180910390a150505050565b6000809054906101000a900473ffffffffffffffffffffffffffffffffffffffff1681565b60008060009054906101000a900473ffffffffffffffffffffffffffffffffffffffff1673ffffffffffffffffffffffffffffffffffffffff166365f68c89336040518263ffffffff1660e01b8152600401808273ffffffffffffffffffffffffffffffffffffffff1673ffffffffffffffffffffffffffffffffffffffff16815260200191505060206040518083038186803b1580156103e557600080fd5b505afa1580156103f9573d6000803e3d6000fd5b505050506040513d602081101561040f57600080fd5b810190808051906020019092919050505090506040518060400160405280600154815260200160015481525060026000848152602001908152602001600020600083815260200190815260200160002060008201518160000155602082015181600101559050507fcb3d32453c48c4f22f21a43d7452078a45528a08521b3d85089b75e5f405e58e82824260405180848152602001838152602001828152602001935050505060405180910390a1505056fea265627a7a723158209dd6ad0062cc87866242a171e0fea8531b49cca093478264481d7d13a9fd7ea764736f6c63430005100032",
  "source": "//SPDX-License-Identifier: MIT\npragma solidity >= 0.5.0 < 0.7.0;\n\nimport \"./RBBRegistry.sol\";\n\ncontract Notarizer {\n\n    RBBRegistry public rbbRegistry;\n\n    // Constant that indicates that the document notarization was revoked\n    uint NOTARIZATION_REVOKED = 0;\n\n    struct NotarizationInfo {\n        // Notarization date (0 means \"not verified\")\n        uint notarizationDate;\n        // Verification expiration date (0 means \"never expires\")\n        uint expiratioDate;\n    }\n\n    // document hash => Attester RBB Id => notarizationInfo\n    mapping (bytes32 => mapping (uint => NotarizationInfo)) public notarizationInfo;\n\n    // Document hash, attester RBB Id, date of today and expiration date\n    event DocumentNotarized(bytes32, uint, uint, uint);\n    event NotarizationRevoked(bytes32, uint, uint);\n\n    constructor (address rbbRegistryAddr) public\n    {\n        rbbRegistry = RBBRegistry (rbbRegistryAddr)\n        ;\n    }\n\n    function notarizeDocument(bytes32 hash, uint validDays) public \n    {\n        require(validDays > 0);\n        \n        uint expirationDate = now + validDays * 1 days;\n        uint attesterRbbId = rbbRegistry.getId(msg.sender);\n \n        notarizationInfo[hash][attesterRbbId] = NotarizationInfo(now, expirationDate);\n\n        emit DocumentNotarized(hash, attesterRbbId, now, expirationDate);\n    }\n\n    function revoke(bytes32 hash) public \n    {\n        uint attesterRbbId = rbbRegistry.getId(msg.sender);\n\n        notarizationInfo[hash][attesterRbbId] = \n            NotarizationInfo(NOTARIZATION_REVOKED, NOTARIZATION_REVOKED);\n\n        emit NotarizationRevoked(hash, attesterRbbId, now);\n    }\n}",
  "sourcePath": "/Users/glads/src/bndes/rbb-notarizer/back-blockchain/contracts/Notarizer.sol",
  "compiler": {
    "name": "solc",
    "version": "0.5.16+commit.9c3226ce.Emscripten.clang"
  },
  "schemaVersion": "3.2.5",
  "updatedAt": "2020-09-21T20:50:45.565Z",
  "networkType": "ethereum",
  "devdoc": {
    "methods": {}
  },
  "userdoc": {
    "methods": {}
  }
}