{
  "contractName": "NotarizationInfoWithMetadata",
  "abi": [
    {
      "inputs": [
        {
          "internalType": "address",
          "name": "rbbRegistryAddr",
          "type": "address"
        }
      ],
      "payable": false,
      "stateMutability": "nonpayable",
      "type": "constructor"
    },
    {
      "anonymous": false,
      "inputs": [
        {
          "indexed": false,
          "internalType": "uint256",
          "name": "",
          "type": "uint256"
        },
        {
          "indexed": false,
          "internalType": "string",
          "name": "",
          "type": "string"
        },
        {
          "indexed": false,
          "internalType": "string",
          "name": "",
          "type": "string"
        },
        {
          "indexed": false,
          "internalType": "uint256",
          "name": "",
          "type": "uint256"
        },
        {
          "indexed": false,
          "internalType": "uint256",
          "name": "",
          "type": "uint256"
        },
        {
          "indexed": false,
          "internalType": "uint256",
          "name": "",
          "type": "uint256"
        }
      ],
      "name": "DocumentNotarized",
      "type": "event"
    },
    {
      "constant": true,
      "inputs": [],
      "name": "rbbRegistry",
      "outputs": [
        {
          "internalType": "contract RBBRegistry",
          "name": "",
          "type": "address"
        }
      ],
      "payable": false,
      "stateMutability": "view",
      "type": "function"
    },
    {
      "constant": false,
      "inputs": [
        {
          "internalType": "string",
          "name": "docMetadata",
          "type": "string"
        },
        {
          "internalType": "string",
          "name": "docId",
          "type": "string"
        },
        {
          "internalType": "uint256",
          "name": "docHash",
          "type": "uint256"
        }
      ],
      "name": "notarizeDocument",
      "outputs": [],
      "payable": false,
      "stateMutability": "nonpayable",
      "type": "function"
    },
    {
      "constant": true,
      "inputs": [
        {
          "internalType": "uint256",
          "name": "attesterId",
          "type": "uint256"
        },
        {
          "internalType": "string",
          "name": "docMetadata",
          "type": "string"
        },
        {
          "internalType": "string",
          "name": "docId",
          "type": "string"
        },
        {
          "internalType": "uint256",
          "name": "docHash",
          "type": "uint256"
        }
      ],
      "name": "isDocumentNotarized",
      "outputs": [
        {
          "internalType": "bool",
          "name": "",
          "type": "bool"
        }
      ],
      "payable": false,
      "stateMutability": "view",
      "type": "function"
    },
    {
      "constant": true,
      "inputs": [
        {
          "internalType": "uint256",
          "name": "attesterId",
          "type": "uint256"
        },
        {
          "internalType": "string",
          "name": "docMetadata",
          "type": "string"
        },
        {
          "internalType": "string",
          "name": "docId",
          "type": "string"
        }
      ],
      "name": "notarizationInfoAboutDocument",
      "outputs": [
        {
          "internalType": "bool",
          "name": "",
          "type": "bool"
        },
        {
          "components": [
            {
              "internalType": "uint256",
              "name": "docHash",
              "type": "uint256"
            },
            {
              "internalType": "uint256",
              "name": "notarizationDate",
              "type": "uint256"
            }
          ],
          "internalType": "struct NotarizationInfoWithMetadata.NotarizationInfo[]",
          "name": "",
          "type": "tuple[]"
        }
      ],
      "payable": false,
      "stateMutability": "view",
      "type": "function"
    }
  ],
  "bytecode": "0x608060405234801561001057600080fd5b50604051610c9a380380610c9a8339818101604052610032919081019061008d565b806000806101000a81548173ffffffffffffffffffffffffffffffffffffffff021916908373ffffffffffffffffffffffffffffffffffffffff160217905550506100ff565b600081519050610087816100e8565b92915050565b60006020828403121561009f57600080fd5b60006100ad84828501610078565b91505092915050565b60006100c1826100c8565b9050919050565b600073ffffffffffffffffffffffffffffffffffffffff82169050919050565b6100f1816100b6565b81146100fc57600080fd5b50565b610b8c8061010e6000396000f3fe608060405234801561001057600080fd5b506004361061004c5760003560e01c80632601d0e1146100515780636b687cfd146100815780638a53fb5c146100b2578063e599c0fb146100d0575b600080fd5b61006b600480360361006691908101906106a2565b6100ec565b60405161007891906108c1565b60405180910390f35b61009b60048036036100969190810190610623565b6101c8565b6040516100a99291906108dc565b60405180910390f35b6100ba6102e7565b6040516100c7919061090c565b60405180910390f35b6100ea60048036036100e5919081019061057b565b61030c565b005b6000806001600087815260200190815260200160002085604051610110919061088f565b90815260200160405180910390208460405161012c919061088f565b9081526020016040518091039020805490509050600081146101ba5782600160008881526020019081526020016000208660405161016a919061088f565b908152602001604051809103902085604051610186919061088f565b908152602001604051809103902060018303815481106101a257fe5b906000526020600020906002020160000154146101bd565b60005b915050949350505050565b6000606060008060016000888152602001908152602001600020866040516101f0919061088f565b90815260200160405180910390208560405161020c919061088f565b908152602001604051809103902080549050119050806001600088815260200190815260200160002086604051610243919061088f565b90815260200160405180910390208560405161025f919061088f565b908152602001604051809103902080805480602002602001604051908101604052809291908181526020016000905b828210156102d45783829060005260206000209060020201604051806040016040529081600082015481526020016001820154815250508152602001906001019061028e565b5050505090509250925050935093915050565b6000809054906101000a900473ffffffffffffffffffffffffffffffffffffffff1681565b60008060009054906101000a900473ffffffffffffffffffffffffffffffffffffffff1673ffffffffffffffffffffffffffffffffffffffff166365f68c89336040518263ffffffff1660e01b815260040161036891906108a6565b60206040518083038186803b15801561038057600080fd5b505afa158015610394573d6000803e3d6000fd5b505050506040513d601f19601f820116820180604052506103b891908101906105fa565b9050600042905060016000838152602001908152602001600020856040516103e0919061088f565b9081526020016040518091039020846040516103fc919061088f565b908152602001604051809103902060405180604001604052808581526020018381525090806001815401808255809150509060018203906000526020600020906002020160009091929091909150600082015181600001556020820151816001015550505060006001600084815260200190815260200160002086604051610484919061088f565b9081526020016040518091039020856040516104a0919061088f565b90815260200160405180910390208054905090507fe992cd8c9cf99463acc29c3a7ee14b6ea283a151755b39b503e36ae9297a64d18387878786866040516104ed96959493929190610927565b60405180910390a1505050505050565b600082601f83011261050e57600080fd5b813561052161051c826109c3565b610996565b9150808252602083016020830185838301111561053d57600080fd5b610548838284610adf565b50505092915050565b60008135905061056081610b32565b92915050565b60008151905061057581610b32565b92915050565b60008060006060848603121561059057600080fd5b600084013567ffffffffffffffff8111156105aa57600080fd5b6105b6868287016104fd565b935050602084013567ffffffffffffffff8111156105d357600080fd5b6105df868287016104fd565b92505060406105f086828701610551565b9150509250925092565b60006020828403121561060c57600080fd5b600061061a84828501610566565b91505092915050565b60008060006060848603121561063857600080fd5b600061064686828701610551565b935050602084013567ffffffffffffffff81111561066357600080fd5b61066f868287016104fd565b925050604084013567ffffffffffffffff81111561068c57600080fd5b610698868287016104fd565b9150509250925092565b600080600080608085870312156106b857600080fd5b60006106c687828801610551565b945050602085013567ffffffffffffffff8111156106e357600080fd5b6106ef878288016104fd565b935050604085013567ffffffffffffffff81111561070c57600080fd5b610718878288016104fd565b925050606061072987828801610551565b91505092959194509250565b60006107418383610842565b60408301905092915050565b61075681610a85565b82525050565b6000610767826109ff565b6107718185610a22565b935061077c836109ef565b8060005b838110156107ad5781516107948882610735565b975061079f83610a15565b925050600181019050610780565b5085935050505092915050565b6107c381610a4f565b82525050565b6107d281610a97565b82525050565b60006107e382610a0a565b6107ed8185610a33565b93506107fd818560208601610aee565b61080681610b21565b840191505092915050565b600061081c82610a0a565b6108268185610a44565b9350610836818560208601610aee565b80840191505092915050565b6040820160008201516108586000850182610871565b50602082015161086b6020850182610871565b50505050565b61087a81610a7b565b82525050565b61088981610a7b565b82525050565b600061089b8284610811565b915081905092915050565b60006020820190506108bb600083018461074d565b92915050565b60006020820190506108d660008301846107ba565b92915050565b60006040820190506108f160008301856107ba565b8181036020830152610903818461075c565b90509392505050565b600060208201905061092160008301846107c9565b92915050565b600060c08201905061093c6000830189610880565b818103602083015261094e81886107d8565b9050818103604083015261096281876107d8565b90506109716060830186610880565b61097e6080830185610880565b61098b60a0830184610880565b979650505050505050565b6000604051905081810181811067ffffffffffffffff821117156109b957600080fd5b8060405250919050565b600067ffffffffffffffff8211156109da57600080fd5b601f19601f8301169050602081019050919050565b6000819050602082019050919050565b600081519050919050565b600081519050919050565b6000602082019050919050565b600082825260208201905092915050565b600082825260208201905092915050565b600081905092915050565b60008115159050919050565b600073ffffffffffffffffffffffffffffffffffffffff82169050919050565b6000819050919050565b6000610a9082610abb565b9050919050565b6000610aa282610aa9565b9050919050565b6000610ab482610a5b565b9050919050565b6000610ac682610acd565b9050919050565b6000610ad882610a5b565b9050919050565b82818337600083830152505050565b60005b83811015610b0c578082015181840152602081019050610af1565b83811115610b1b576000848401525b50505050565b6000601f19601f8301169050919050565b610b3b81610a7b565b8114610b4657600080fd5b5056fea365627a7a72315820c225ead27c3e211fb83263691d971e08bdcb9dea46efc826ee8afdb7948f5f196c6578706572696d656e74616cf564736f6c63430005100040",
  "source": "//SPDX-License-Identifier: MIT\npragma solidity >= 0.5.0 < 0.7.0;\npragma experimental ABIEncoderV2;\n\nimport \"./RBBRegistry.sol\";\n\ncontract NotarizationInfoWithMetadata {\n    RBBRegistry public rbbRegistry;\n\n    struct NotarizationInfo\n    {\n        uint256 docHash;\n        uint    notarizationDate;\n    }\n\n    // Attester RBB Id => Document metadata => Document Id => NotarizationInfo array.\n    // Each element of the array is a version of the document.\n    mapping (uint => mapping (string => mapping(string => NotarizationInfo[]))) \n        private notarizationInfos;\n\n    // Attester RBB Id, document metadata, document id, document hash, notarization date, version\n    event DocumentNotarized(uint, string, string, uint256, uint, uint);\n\n    constructor (address rbbRegistryAddr) public\n    {\n        rbbRegistry = RBBRegistry (rbbRegistryAddr);\n    }\n\n    function notarizeDocument (string memory docMetadata, string memory docId, \n        uint256 docHash) public \n    {\n        uint attesterId = rbbRegistry.getId(msg.sender);\n        uint notarizationDate = now; \n\n        notarizationInfos[attesterId][docMetadata][docId]\n            .push(NotarizationInfo(docHash, notarizationDate));\n\n        uint numberOfVersions = notarizationInfos[attesterId][docMetadata][docId].length;\n\n        // Attester RBB Id, document metadata, document id, document hash, notarization date, version\n        emit DocumentNotarized(attesterId, docMetadata, docId, docHash, \n            notarizationDate, numberOfVersions);\n    }\n\n    function isDocumentNotarized(uint attesterId, string memory docMetadata, string memory docId, \n        uint256 docHash) public view returns (bool)\n    {\n        uint numberOfVersions = notarizationInfos[attesterId][docMetadata][docId].length;\n\n        return (numberOfVersions == 0) ? \n            false : \n            (notarizationInfos[attesterId][docMetadata][docId][numberOfVersions - 1].docHash == docHash);\n    }\n\n    // Retorna um boolean que indica se há informacao disponivel e, caso true, \n    // todo o array com as versões da notarizacao\n    function notarizationInfoAboutDocument(uint attesterId, string memory docMetadata, \n        string memory docId) public view returns(bool, NotarizationInfo[] memory)\n    {\n        bool existNotarization = (notarizationInfos[attesterId][docMetadata][docId].length > 0);\n\n        return (existNotarization, notarizationInfos[attesterId][docMetadata][docId]);\n\n    }\n\n}\n",
  "sourcePath": "/Users/glads/src/bndes/rbb-notarizacao/back-blockchain/contracts/NotarizerWithMetadata.sol",
  "compiler": {
    "name": "solc",
    "version": "0.5.16+commit.9c3226ce.Emscripten.clang"
  },
  "schemaVersion": "3.2.5",
  "updatedAt": "2020-09-30T19:48:08.640Z",
  "devdoc": {
    "methods": {}
  },
  "userdoc": {
    "methods": {}
  }
}