{
  "contractName": "Notarizer",
  "abi": [
    {
      "inputs": [
        {
          "internalType": "address",
          "name": "rbbRegistryAddr",
          "type": "address"
        }
      ],
      "stateMutability": "nonpayable",
      "type": "constructor"
    },
    {
      "anonymous": false,
      "inputs": [
        {
          "indexed": false,
          "internalType": "uint256",
          "name": "",
          "type": "uint256"
        },
        {
          "indexed": false,
          "internalType": "string",
          "name": "",
          "type": "string"
        },
        {
          "indexed": false,
          "internalType": "string",
          "name": "",
          "type": "string"
        },
        {
          "indexed": false,
          "internalType": "bytes32",
          "name": "",
          "type": "bytes32"
        },
        {
          "indexed": false,
          "internalType": "uint256",
          "name": "",
          "type": "uint256"
        },
        {
          "indexed": false,
          "internalType": "uint256",
          "name": "",
          "type": "uint256"
        }
      ],
      "name": "DocumentNotarized",
      "type": "event"
    },
    {
      "inputs": [],
      "name": "rbbRegistry",
      "outputs": [
        {
          "internalType": "contract IRBBRegistry",
          "name": "",
          "type": "address"
        }
      ],
      "stateMutability": "view",
      "type": "function"
    },
    {
      "inputs": [
        {
          "internalType": "string",
          "name": "docMetadata",
          "type": "string"
        },
        {
          "internalType": "string",
          "name": "docId",
          "type": "string"
        },
        {
          "internalType": "bytes32",
          "name": "docHash",
          "type": "bytes32"
        }
      ],
      "name": "notarizeDocument",
      "outputs": [],
      "stateMutability": "nonpayable",
      "type": "function"
    },
    {
      "inputs": [
        {
          "internalType": "uint256",
          "name": "attesterId",
          "type": "uint256"
        },
        {
          "internalType": "string",
          "name": "docMetadata",
          "type": "string"
        },
        {
          "internalType": "string",
          "name": "docId",
          "type": "string"
        },
        {
          "internalType": "bytes32",
          "name": "docHash",
          "type": "bytes32"
        }
      ],
      "name": "isNotarizedDocument",
      "outputs": [
        {
          "internalType": "bool",
          "name": "",
          "type": "bool"
        }
      ],
      "stateMutability": "view",
      "type": "function"
    },
    {
      "inputs": [
        {
          "internalType": "uint256",
          "name": "attesterId",
          "type": "uint256"
        },
        {
          "internalType": "string",
          "name": "docMetadata",
          "type": "string"
        },
        {
          "internalType": "string",
          "name": "docId",
          "type": "string"
        }
      ],
      "name": "notarizationInfoByData",
      "outputs": [
        {
          "internalType": "bool",
          "name": "",
          "type": "bool"
        },
        {
          "internalType": "bytes32[]",
          "name": "",
          "type": "bytes32[]"
        },
        {
          "internalType": "uint256[]",
          "name": "",
          "type": "uint256[]"
        }
      ],
      "stateMutability": "view",
      "type": "function"
    }
  ],
  "bytecode": "0x608060405234801561001057600080fd5b50604051610e7f380380610e7f8339818101604052810190610032919061008d565b806000806101000a81548173ffffffffffffffffffffffffffffffffffffffff021916908373ffffffffffffffffffffffffffffffffffffffff160217905550506100ff565b600081519050610087816100e8565b92915050565b60006020828403121561009f57600080fd5b60006100ad84828501610078565b91505092915050565b60006100c1826100c8565b9050919050565b600073ffffffffffffffffffffffffffffffffffffffff82169050919050565b6100f1816100b6565b81146100fc57600080fd5b50565b610d718061010e6000396000f3fe608060405234801561001057600080fd5b506004361061004c5760003560e01c80638a53fb5c14610051578063a0b9cfa81461006f578063a3f885781461009f578063e76b78e8146100bb575b600080fd5b6100596100ed565b6040516100669190610aa4565b60405180910390f35b610089600480360381019061008491906107c0565b610111565b6040516100969190610a44565b60405180910390f35b6100b960048036038101906100b49190610699565b6101ed565b005b6100d560048036038101906100d09190610741565b6103db565b6040516100e493929190610a5f565b60405180910390f35b60008054906101000a900473ffffffffffffffffffffffffffffffffffffffff1681565b60008060016000878152602001908152602001600020856040516101359190610a12565b9081526020016040518091039020846040516101519190610a12565b9081526020016040518091039020805490509050600081146101df5782600160008881526020019081526020016000208660405161018f9190610a12565b9081526020016040518091039020856040516101ab9190610a12565b908152602001604051809103902060018303815481106101c757fe5b906000526020600020906002020160000154146101e2565b60005b915050949350505050565b60008060009054906101000a900473ffffffffffffffffffffffffffffffffffffffff1673ffffffffffffffffffffffffffffffffffffffff166365f68c89336040518263ffffffff1660e01b81526004016102499190610a29565b60206040518083038186803b15801561026157600080fd5b505afa158015610275573d6000803e3d6000fd5b505050506040513d601f19601f820116820180604052508101906102999190610718565b9050600042905060016000838152602001908152602001600020856040516102c19190610a12565b9081526020016040518091039020846040516102dd9190610a12565b9081526020016040518091039020604051806040016040528085815260200183815250908060018154018082558091505060019003906000526020600020906002020160009091909190915060008201518160000155602082015181600101555050600060016000848152602001908152602001600020866040516103629190610a12565b90815260200160405180910390208560405161037e9190610a12565b90815260200160405180910390208054905090507fecb324223bdc1ea7b545e6259399fead747972defdc053a2f30ef078cbaabb638387878786866040516103cb96959493929190610abf565b60405180910390a1505050505050565b6000606080600060016000888152602001908152602001600020866040516104039190610a12565b90815260200160405180910390208560405161041f9190610a12565b90815260200160405180910390208054905090506000808211905060608267ffffffffffffffff8111801561045357600080fd5b506040519080825280602002602001820160405280156104825781602001602082028036833780820191505090505b50905060608367ffffffffffffffff8111801561049e57600080fd5b506040519080825280602002602001820160405280156104cd5781602001602082028036833780820191505090505b50905082156105f05760005b848110156105ee57600160008c81526020019081526020016000208a6040516105029190610a12565b90815260200160405180910390208960405161051e9190610a12565b9081526020016040518091039020818154811061053757fe5b90600052602060002090600202016000015483828151811061055557fe5b602002602001018181525050600160008c81526020019081526020016000208a6040516105829190610a12565b90815260200160405180910390208960405161059e9190610a12565b908152602001604051809103902081815481106105b757fe5b9060005260206000209060020201600101548282815181106105d557fe5b60200260200101818152505080806001019150506104d9565b505b8282829650965096505050505093509350939050565b60008135905061061581610d0d565b92915050565b600082601f83011261062c57600080fd5b813561063f61063a82610b5b565b610b2e565b9150808252602083016020830185838301111561065b57600080fd5b610666838284610cba565b50505092915050565b60008135905061067e81610d24565b92915050565b60008151905061069381610d24565b92915050565b6000806000606084860312156106ae57600080fd5b600084013567ffffffffffffffff8111156106c857600080fd5b6106d48682870161061b565b935050602084013567ffffffffffffffff8111156106f157600080fd5b6106fd8682870161061b565b925050604061070e86828701610606565b9150509250925092565b60006020828403121561072a57600080fd5b600061073884828501610684565b91505092915050565b60008060006060848603121561075657600080fd5b60006107648682870161066f565b935050602084013567ffffffffffffffff81111561078157600080fd5b61078d8682870161061b565b925050604084013567ffffffffffffffff8111156107aa57600080fd5b6107b68682870161061b565b9150509250925092565b600080600080608085870312156107d657600080fd5b60006107e48782880161066f565b945050602085013567ffffffffffffffff81111561080157600080fd5b61080d8782880161061b565b935050604085013567ffffffffffffffff81111561082a57600080fd5b6108368782880161061b565b925050606061084787828801610606565b91505092959194509250565b600061085f838361095d565b60208301905092915050565b600061087783836109f4565b60208301905092915050565b61088c81610c60565b82525050565b600061089d82610ba7565b6108a78185610be2565b93506108b283610b87565b8060005b838110156108e35781516108ca8882610853565b97506108d583610bc8565b9250506001810190506108b6565b5085935050505092915050565b60006108fb82610bb2565b6109058185610bf3565b935061091083610b97565b8060005b83811015610941578151610928888261086b565b975061093383610bd5565b925050600181019050610914565b5085935050505092915050565b61095781610c20565b82525050565b61096681610c2c565b82525050565b61097581610c2c565b82525050565b61098481610c72565b82525050565b600061099582610bbd565b61099f8185610c04565b93506109af818560208601610cc9565b6109b881610cfc565b840191505092915050565b60006109ce82610bbd565b6109d88185610c15565b93506109e8818560208601610cc9565b80840191505092915050565b6109fd81610c56565b82525050565b610a0c81610c56565b82525050565b6000610a1e82846109c3565b915081905092915050565b6000602082019050610a3e6000830184610883565b92915050565b6000602082019050610a59600083018461094e565b92915050565b6000606082019050610a74600083018661094e565b8181036020830152610a868185610892565b90508181036040830152610a9a81846108f0565b9050949350505050565b6000602082019050610ab9600083018461097b565b92915050565b600060c082019050610ad46000830189610a03565b8181036020830152610ae6818861098a565b90508181036040830152610afa818761098a565b9050610b09606083018661096c565b610b166080830185610a03565b610b2360a0830184610a03565b979650505050505050565b6000604051905081810181811067ffffffffffffffff82111715610b5157600080fd5b8060405250919050565b600067ffffffffffffffff821115610b7257600080fd5b601f19601f8301169050602081019050919050565b6000819050602082019050919050565b6000819050602082019050919050565b600081519050919050565b600081519050919050565b600081519050919050565b6000602082019050919050565b6000602082019050919050565b600082825260208201905092915050565b600082825260208201905092915050565b600082825260208201905092915050565b600081905092915050565b60008115159050919050565b6000819050919050565b600073ffffffffffffffffffffffffffffffffffffffff82169050919050565b6000819050919050565b6000610c6b82610c96565b9050919050565b6000610c7d82610c84565b9050919050565b6000610c8f82610c36565b9050919050565b6000610ca182610ca8565b9050919050565b6000610cb382610c36565b9050919050565b82818337600083830152505050565b60005b83811015610ce7578082015181840152602081019050610ccc565b83811115610cf6576000848401525b50505050565b6000601f19601f8301169050919050565b610d1681610c2c565b8114610d2157600080fd5b50565b610d2d81610c56565b8114610d3857600080fd5b5056fea2646970667358221220922b1f14b391da0e8d16001e3a4f757a9bad92828256430e094cbf03db1c7aa064736f6c634300060c0033",
  "immutableReferences": {},
  "source": "//SPDX-License-Identifier: MIT\npragma solidity ^0.6.0;\npragma experimental ABIEncoderV2;\n\nimport \"./IRBBRegistry.sol\";\n\ncontract Notarizer {\n    IRBBRegistry public rbbRegistry;\n\n    struct NotarizationInfo\n    {\n        bytes32 docHash;\n        uint    notarizationDate;\n    }\n\n    // Attester RBB Id => Document metadata => Document Id => NotarizationInfo array.\n    // Each element of the array is a version of the document.\n    mapping (uint => mapping (string => mapping(string => NotarizationInfo[]))) \n        private notarizationInfos;\n\n    // Attester RBB Id, document metadata, document id, document hash, notarization date, version\n    event DocumentNotarized(uint, string, string, bytes32, uint, uint);\n\n    constructor (address rbbRegistryAddr) public\n    {\n        rbbRegistry = IRBBRegistry (rbbRegistryAddr);\n    }\n\n    function notarizeDocument (string memory docMetadata, string memory docId, \n        bytes32 docHash) public \n    {\n        uint attesterId = rbbRegistry.getId(msg.sender);\n        uint notarizationDate = now; \n\n        notarizationInfos[attesterId][docMetadata][docId]\n            .push(NotarizationInfo(docHash, notarizationDate));\n\n        uint numberOfVersions = notarizationInfos[attesterId][docMetadata][docId].length;\n\n        // Attester RBB Id, document metadata, document id, document hash, notarization date, version\n        emit DocumentNotarized(attesterId, docMetadata, docId, docHash, \n            notarizationDate, numberOfVersions);\n    }\n\n    function isNotarizedDocument(uint attesterId, string memory docMetadata, string memory docId, \n        bytes32 docHash) public view returns (bool)\n    {\n        uint numberOfVersions = notarizationInfos[attesterId][docMetadata][docId].length;\n\n        return (numberOfVersions == 0) ? \n            false : \n            (notarizationInfos[attesterId][docMetadata][docId][numberOfVersions - 1].docHash == docHash);\n    }\n\n    // Retorna um boolean que indica se há informacao disponivel e, caso true, \n    // retorna todos os hashs e as datas das notarizacoes em ordem de versao\n    function notarizationInfoByData(uint attesterId, string memory docMetadata, \n        string memory docId) public view returns(bool, bytes32[] memory, uint[] memory)\n    {\n\n        uint length = notarizationInfos[attesterId][docMetadata][docId].length;\n        bool existNotarization = (length > 0);\n\n        bytes32[] memory    hashs = new bytes32[](length);\n        uint[] memory      dates = new uint[](length);\n\n        if (existNotarization)\n        {\n            for (uint i = 0; i < length; i++)\n            {\n                hashs[i] = notarizationInfos[attesterId][docMetadata][docId][i].docHash; \n                dates[i] = notarizationInfos[attesterId][docMetadata][docId][i].notarizationDate;\n            }            \n        }\n\n        return (existNotarization, hashs, dates);\n\n    }\n\n}\n",
  "sourcePath": "/Users/suzana.moreno/workspace/rbb-notarizacao/back-blockchain/contracts/Notarizer.sol",
  "compiler": {
    "name": "solc",
    "version": "0.6.12+commit.27d51765.Emscripten.clang"
  },
  "schemaVersion": "3.2.5",
  "updatedAt": "2020-12-22T21:11:56.022Z",
  "devdoc": {
    "kind": "dev",
    "methods": {},
    "version": 1
  },
  "userdoc": {
    "kind": "user",
    "methods": {},
    "version": 1
  }
}