{
  "contractName": "NotarizerWithMetadata",
  "abi": [
    {
      "inputs": [
        {
          "internalType": "address",
          "name": "rbbRegistryAddr",
          "type": "address"
        }
      ],
      "payable": false,
      "stateMutability": "nonpayable",
      "type": "constructor"
    },
    {
      "anonymous": false,
      "inputs": [
        {
          "indexed": false,
          "internalType": "uint256",
          "name": "",
          "type": "uint256"
        },
        {
          "indexed": false,
          "internalType": "string",
          "name": "",
          "type": "string"
        },
        {
          "indexed": false,
          "internalType": "string",
          "name": "",
          "type": "string"
        },
        {
          "indexed": false,
          "internalType": "uint256",
          "name": "",
          "type": "uint256"
        },
        {
          "indexed": false,
          "internalType": "uint256",
          "name": "",
          "type": "uint256"
        },
        {
          "indexed": false,
          "internalType": "uint256",
          "name": "",
          "type": "uint256"
        }
      ],
      "name": "DocumentNotarized",
      "type": "event"
    },
    {
      "constant": true,
      "inputs": [],
      "name": "rbbRegistry",
      "outputs": [
        {
          "internalType": "contract RBBRegistry",
          "name": "",
          "type": "address"
        }
      ],
      "payable": false,
      "stateMutability": "view",
      "type": "function"
    },
    {
      "constant": false,
      "inputs": [
        {
          "internalType": "string",
          "name": "docMetadata",
          "type": "string"
        },
        {
          "internalType": "string",
          "name": "docId",
          "type": "string"
        },
        {
          "internalType": "uint256",
          "name": "docHash",
          "type": "uint256"
        }
      ],
      "name": "notarizeDocument",
      "outputs": [],
      "payable": false,
      "stateMutability": "nonpayable",
      "type": "function"
    },
    {
      "constant": true,
      "inputs": [
        {
          "internalType": "uint256",
          "name": "attesterId",
          "type": "uint256"
        },
        {
          "internalType": "string",
          "name": "docMetadata",
          "type": "string"
        },
        {
          "internalType": "string",
          "name": "docId",
          "type": "string"
        },
        {
          "internalType": "uint256",
          "name": "docHash",
          "type": "uint256"
        }
      ],
      "name": "isNotarizedDocument",
      "outputs": [
        {
          "internalType": "bool",
          "name": "",
          "type": "bool"
        }
      ],
      "payable": false,
      "stateMutability": "view",
      "type": "function"
    },
    {
      "constant": true,
      "inputs": [
        {
          "internalType": "uint256",
          "name": "attesterId",
          "type": "uint256"
        },
        {
          "internalType": "string",
          "name": "docMetadata",
          "type": "string"
        },
        {
          "internalType": "string",
          "name": "docId",
          "type": "string"
        }
      ],
      "name": "notarizationInfoByData",
      "outputs": [
        {
          "internalType": "bool",
          "name": "",
          "type": "bool"
        },
        {
          "internalType": "uint256[]",
          "name": "",
          "type": "uint256[]"
        },
        {
          "internalType": "uint256[]",
          "name": "",
          "type": "uint256[]"
        }
      ],
      "payable": false,
      "stateMutability": "view",
      "type": "function"
    }
  ],
  "bytecode": "0x608060405234801561001057600080fd5b50604051610d62380380610d628339818101604052610032919081019061008d565b806000806101000a81548173ffffffffffffffffffffffffffffffffffffffff021916908373ffffffffffffffffffffffffffffffffffffffff160217905550506100ff565b600081519050610087816100e8565b92915050565b60006020828403121561009f57600080fd5b60006100ad84828501610078565b91505092915050565b60006100c1826100c8565b9050919050565b600073ffffffffffffffffffffffffffffffffffffffff82169050919050565b6100f1816100b6565b81146100fc57600080fd5b50565b610c548061010e6000396000f3fe608060405234801561001057600080fd5b506004361061004c5760003560e01c80638a53fb5c14610051578063b50b09281461006f578063e599c0fb1461009f578063e76b78e8146100bb575b600080fd5b6100596100ed565b60405161006691906109d4565b60405180910390f35b61008960048036036100849190810190610784565b610112565b6040516100969190610974565b60405180910390f35b6100b960048036036100b4919081019061065d565b6101ee565b005b6100d560048036036100d09190810190610705565b6103df565b6040516100e49392919061098f565b60405180910390f35b6000809054906101000a900473ffffffffffffffffffffffffffffffffffffffff1681565b60008060016000878152602001908152602001600020856040516101369190610942565b9081526020016040518091039020846040516101529190610942565b9081526020016040518091039020805490509050600081146101e0578260016000888152602001908152602001600020866040516101909190610942565b9081526020016040518091039020856040516101ac9190610942565b908152602001604051809103902060018303815481106101c857fe5b906000526020600020906002020160000154146101e3565b60005b915050949350505050565b60008060009054906101000a900473ffffffffffffffffffffffffffffffffffffffff1673ffffffffffffffffffffffffffffffffffffffff166365f68c89336040518263ffffffff1660e01b815260040161024a9190610959565b60206040518083038186803b15801561026257600080fd5b505afa158015610276573d6000803e3d6000fd5b505050506040513d601f19601f8201168201806040525061029a91908101906106dc565b9050600042905060016000838152602001908152602001600020856040516102c29190610942565b9081526020016040518091039020846040516102de9190610942565b9081526020016040518091039020604051806040016040528085815260200183815250908060018154018082558091505090600182039060005260206000209060020201600090919290919091506000820151816000015560208201518160010155505050600060016000848152602001908152602001600020866040516103669190610942565b9081526020016040518091039020856040516103829190610942565b90815260200160405180910390208054905090507fe992cd8c9cf99463acc29c3a7ee14b6ea283a151755b39b503e36ae9297a64d18387878786866040516103cf969594939291906109ef565b60405180910390a1505050505050565b6000606080600060016000888152602001908152602001600020866040516104079190610942565b9081526020016040518091039020856040516104239190610942565b90815260200160405180910390208054905090506000808211905060608260405190808252806020026020018201604052801561046f5781602001602082028038833980820191505090505b5090506060836040519080825280602002602001820160405280156104a35781602001602082028038833980820191505090505b50905082156105c95760008090505b848110156105c757600160008c81526020019081526020016000208a6040516104db9190610942565b9081526020016040518091039020896040516104f79190610942565b9081526020016040518091039020818154811061051057fe5b90600052602060002090600202016000015483828151811061052e57fe5b602002602001018181525050600160008c81526020019081526020016000208a60405161055b9190610942565b9081526020016040518091039020896040516105779190610942565b9081526020016040518091039020818154811061059057fe5b9060005260206000209060020201600101548282815181106105ae57fe5b60200260200101818152505080806001019150506104b2565b505b8282829650965096505050505093509350939050565b600082601f8301126105f057600080fd5b81356106036105fe82610a8b565b610a5e565b9150808252602083016020830185838301111561061f57600080fd5b61062a838284610ba7565b50505092915050565b60008135905061064281610bfa565b92915050565b60008151905061065781610bfa565b92915050565b60008060006060848603121561067257600080fd5b600084013567ffffffffffffffff81111561068c57600080fd5b610698868287016105df565b935050602084013567ffffffffffffffff8111156106b557600080fd5b6106c1868287016105df565b92505060406106d286828701610633565b9150509250925092565b6000602082840312156106ee57600080fd5b60006106fc84828501610648565b91505092915050565b60008060006060848603121561071a57600080fd5b600061072886828701610633565b935050602084013567ffffffffffffffff81111561074557600080fd5b610751868287016105df565b925050604084013567ffffffffffffffff81111561076e57600080fd5b61077a868287016105df565b9150509250925092565b6000806000806080858703121561079a57600080fd5b60006107a887828801610633565b945050602085013567ffffffffffffffff8111156107c557600080fd5b6107d1878288016105df565b935050604085013567ffffffffffffffff8111156107ee57600080fd5b6107fa878288016105df565b925050606061080b87828801610633565b91505092959194509250565b60006108238383610924565b60208301905092915050565b61083881610b4d565b82525050565b600061084982610ac7565b6108538185610aea565b935061085e83610ab7565b8060005b8381101561088f5781516108768882610817565b975061088183610add565b925050600181019050610862565b5085935050505092915050565b6108a581610b17565b82525050565b6108b481610b5f565b82525050565b60006108c582610ad2565b6108cf8185610afb565b93506108df818560208601610bb6565b6108e881610be9565b840191505092915050565b60006108fe82610ad2565b6109088185610b0c565b9350610918818560208601610bb6565b80840191505092915050565b61092d81610b43565b82525050565b61093c81610b43565b82525050565b600061094e82846108f3565b915081905092915050565b600060208201905061096e600083018461082f565b92915050565b6000602082019050610989600083018461089c565b92915050565b60006060820190506109a4600083018661089c565b81810360208301526109b6818561083e565b905081810360408301526109ca818461083e565b9050949350505050565b60006020820190506109e960008301846108ab565b92915050565b600060c082019050610a046000830189610933565b8181036020830152610a1681886108ba565b90508181036040830152610a2a81876108ba565b9050610a396060830186610933565b610a466080830185610933565b610a5360a0830184610933565b979650505050505050565b6000604051905081810181811067ffffffffffffffff82111715610a8157600080fd5b8060405250919050565b600067ffffffffffffffff821115610aa257600080fd5b601f19601f8301169050602081019050919050565b6000819050602082019050919050565b600081519050919050565b600081519050919050565b6000602082019050919050565b600082825260208201905092915050565b600082825260208201905092915050565b600081905092915050565b60008115159050919050565b600073ffffffffffffffffffffffffffffffffffffffff82169050919050565b6000819050919050565b6000610b5882610b83565b9050919050565b6000610b6a82610b71565b9050919050565b6000610b7c82610b23565b9050919050565b6000610b8e82610b95565b9050919050565b6000610ba082610b23565b9050919050565b82818337600083830152505050565b60005b83811015610bd4578082015181840152602081019050610bb9565b83811115610be3576000848401525b50505050565b6000601f19601f8301169050919050565b610c0381610b43565b8114610c0e57600080fd5b5056fea365627a7a72315820c5463e7bb68158c57576b51af7db881a1055467eda9fd418058da6f8752128686c6578706572696d656e74616cf564736f6c63430005100040",
  "source": "//SPDX-License-Identifier: MIT\npragma solidity >= 0.5.0 < 0.7.0;\npragma experimental ABIEncoderV2;\n\nimport \"./RBBRegistry.sol\";\n\ncontract NotarizerWithMetadata {\n    RBBRegistry public rbbRegistry;\n\n    struct NotarizationInfo\n    {\n        uint256 docHash;\n        uint    notarizationDate;\n    }\n\n    // Attester RBB Id => Document metadata => Document Id => NotarizationInfo array.\n    // Each element of the array is a version of the document.\n    mapping (uint => mapping (string => mapping(string => NotarizationInfo[]))) \n        private notarizationInfos;\n\n    // Attester RBB Id, document metadata, document id, document hash, notarization date, version\n    event DocumentNotarized(uint, string, string, uint256, uint, uint);\n\n    constructor (address rbbRegistryAddr) public\n    {\n        rbbRegistry = RBBRegistry (rbbRegistryAddr);\n    }\n\n    function notarizeDocument (string memory docMetadata, string memory docId, \n        uint256 docHash) public \n    {\n        uint attesterId = rbbRegistry.getId(msg.sender);\n        uint notarizationDate = now; \n\n        notarizationInfos[attesterId][docMetadata][docId]\n            .push(NotarizationInfo(docHash, notarizationDate));\n\n        uint numberOfVersions = notarizationInfos[attesterId][docMetadata][docId].length;\n\n        // Attester RBB Id, document metadata, document id, document hash, notarization date, version\n        emit DocumentNotarized(attesterId, docMetadata, docId, docHash, \n            notarizationDate, numberOfVersions);\n    }\n\n    function isNotarizedDocument(uint attesterId, string memory docMetadata, string memory docId, \n        uint256 docHash) public view returns (bool)\n    {\n        uint numberOfVersions = notarizationInfos[attesterId][docMetadata][docId].length;\n\n        return (numberOfVersions == 0) ? \n            false : \n            (notarizationInfos[attesterId][docMetadata][docId][numberOfVersions - 1].docHash == docHash);\n    }\n\n    // Retorna um boolean que indica se há informacao disponivel e, caso true, \n    // retorna todos os hashs e as datas das notarizacoes em ordem de versao\n    function notarizationInfoByData(uint attesterId, string memory docMetadata, \n        string memory docId) public view returns(bool, uint256[] memory, uint[] memory)\n    {\n\n        uint length = notarizationInfos[attesterId][docMetadata][docId].length;\n        bool existNotarization = (length > 0);\n\n        uint256[] memory    hashs = new uint256[](length);\n        uint[] memory      dates = new uint[](length);\n\n        if (existNotarization)\n        {\n            for (uint i = 0; i < length; i++)\n            {\n                hashs[i] = notarizationInfos[attesterId][docMetadata][docId][i].docHash; \n                dates[i] = notarizationInfos[attesterId][docMetadata][docId][i].notarizationDate;\n            }            \n        }\n\n        return (existNotarization, hashs, dates);\n\n    }\n\n}\n",
  "sourcePath": "/Users/glads/src/bndes/rbb-notarizacao/back-blockchain/contracts/NotarizerWithMetadata.sol",
  "compiler": {
    "name": "solc",
    "version": "0.5.16+commit.9c3226ce.Emscripten.clang"
  },
  "schemaVersion": "3.2.5",
  "updatedAt": "2020-09-30T22:34:06.209Z",
  "devdoc": {
    "methods": {}
  },
  "userdoc": {
    "methods": {}
  }
}