{
  "contractName": "RBBRegistry",
  "abi": [
    {
      "inputs": [
        {
          "internalType": "uint256",
          "name": "id",
          "type": "uint256"
        }
      ],
      "payable": false,
      "stateMutability": "nonpayable",
      "type": "constructor"
    },
    {
      "constant": false,
      "inputs": [
        {
          "internalType": "address",
          "name": "addr",
          "type": "address"
        },
        {
          "internalType": "uint256",
          "name": "id",
          "type": "uint256"
        }
      ],
      "name": "addId",
      "outputs": [],
      "payable": false,
      "stateMutability": "nonpayable",
      "type": "function"
    },
    {
      "constant": true,
      "inputs": [
        {
          "internalType": "address",
          "name": "addr",
          "type": "address"
        }
      ],
      "name": "getId",
      "outputs": [
        {
          "internalType": "uint256",
          "name": "",
          "type": "uint256"
        }
      ],
      "payable": false,
      "stateMutability": "view",
      "type": "function"
    }
  ],
  "bytecode": "0x608060405234801561001057600080fd5b506040516103253803806103258339818101604052602081101561003357600080fd5b8101908080519060200190929190505050610054338261005a60201b60201c565b506100a1565b806000808473ffffffffffffffffffffffffffffffffffffffff1673ffffffffffffffffffffffffffffffffffffffff168152602001908152602001600020819055505050565b610275806100b06000396000f3fe608060405234801561001057600080fd5b50600436106100365760003560e01c806365f68c891461003b578063c836159514610093575b600080fd5b61007d6004803603602081101561005157600080fd5b81019080803573ffffffffffffffffffffffffffffffffffffffff1690602001909291905050506100e1565b6040518082815260200191505060405180910390f35b6100df600480360360408110156100a957600080fd5b81019080803573ffffffffffffffffffffffffffffffffffffffff169060200190929190803590602001909291905050506101c0565b005b6000806000808473ffffffffffffffffffffffffffffffffffffffff1673ffffffffffffffffffffffffffffffffffffffff16815260200190815260200160002054141561017a576040517f08c379a00000000000000000000000000000000000000000000000000000000081526004018080602001828103825260398152602001806102086039913960400191505060405180910390fd5b6000808373ffffffffffffffffffffffffffffffffffffffff1673ffffffffffffffffffffffffffffffffffffffff168152602001908152602001600020549050919050565b806000808473ffffffffffffffffffffffffffffffffffffffff1673ffffffffffffffffffffffffffffffffffffffff16815260200190815260200160002081905550505056fe456e64657265c3a76f206ec3a36f2074656d206964656e746966696361646f72206173736f636961646f206e6f205242425265676973747279a265627a7a723158206ac8edf42b8522d0bfb4513da794abcdc66e3385ae190ee020e80152a3fdfa3e64736f6c63430005100032",
  "source": "//SPDX-License-Identifier: MIT\npragma solidity >= 0.5.0 < 0.7.0;\n\ncontract RBBRegistry  \n{\n    mapping (address => uint) private ids;\n\n    constructor (uint id) public \n    {\n        addId(msg.sender, id);\n    \n    }\n\n    function addId(address addr, uint id) public\n    {\n        ids[addr] = id;\n    }\n\n    function getId (address addr) public view returns (uint) \n    {\n        require(ids[addr] != 0, \"Endereço não tem identificador associado no RBBRegistry\");\n        return ids[addr];\n    }\n\n}",
  "sourcePath": "/Users/glads/src/bndes/rbb-notarizacao/back-blockchain/contracts/RBBRegistry.sol",
  "compiler": {
    "name": "solc",
    "version": "0.5.16+commit.9c3226ce.Emscripten.clang"
  },
  "schemaVersion": "3.2.5",
  "updatedAt": "2020-10-05T15:37:43.605Z",
  "networkType": "ethereum",
  "devdoc": {
    "methods": {}
  },
  "userdoc": {
    "methods": {}
  }
}